{
  "contractName": "BlockchainRatings",
  "abi": [
    {
      "constant": true,
      "inputs": [],
      "name": "feedbackSubmissionsCounter",
      "outputs": [
        {
          "name": "",
          "type": "uint256"
        }
      ],
      "payable": false,
      "stateMutability": "view",
      "type": "function"
    },
    {
      "constant": true,
      "inputs": [
        {
          "name": "",
          "type": "uint256"
        }
      ],
      "name": "feedbackRequests",
      "outputs": [
        {
          "name": "id",
          "type": "uint256"
        },
        {
          "name": "vendorAddress",
          "type": "address"
        },
        {
          "name": "clientAddress",
          "type": "address"
        },
        {
          "name": "projectName",
          "type": "string"
        },
        {
          "name": "projectDescription",
          "type": "string"
        },
        {
          "name": "pending",
          "type": "bool"
        }
      ],
      "payable": false,
      "stateMutability": "view",
      "type": "function"
    },
    {
      "constant": true,
      "inputs": [],
      "name": "feedbackRequestsCounter",
      "outputs": [
        {
          "name": "",
          "type": "uint256"
        }
      ],
      "payable": false,
      "stateMutability": "view",
      "type": "function"
    },
    {
      "constant": true,
      "inputs": [
        {
          "name": "",
          "type": "uint256"
        }
      ],
      "name": "feedbackSubmissions",
      "outputs": [
        {
          "name": "id",
          "type": "uint256"
        },
        {
          "name": "requestId",
          "type": "uint256"
        },
        {
          "name": "rating",
          "type": "uint256"
        },
        {
          "name": "feedback",
          "type": "string"
        }
      ],
      "payable": false,
      "stateMutability": "view",
      "type": "function"
    },
    {
      "anonymous": false,
      "inputs": [
        {
          "indexed": true,
          "name": "_id",
          "type": "uint256"
        },
        {
          "indexed": true,
          "name": "_vendorAddress",
          "type": "address"
        },
        {
          "indexed": true,
          "name": "_clientAddress",
          "type": "address"
        },
        {
          "indexed": false,
          "name": "projectName",
          "type": "string"
        },
        {
          "indexed": false,
          "name": "projectDescription",
          "type": "string"
        }
      ],
      "name": "LogRequestFeedback",
      "type": "event"
    },
    {
      "anonymous": false,
      "inputs": [
        {
          "indexed": true,
          "name": "_id",
          "type": "uint256"
        },
        {
          "indexed": true,
          "name": "_feedbackRequestId",
          "type": "uint256"
        },
        {
          "indexed": false,
          "name": "rating",
          "type": "uint256"
        },
        {
          "indexed": false,
          "name": "feedback",
          "type": "string"
        }
      ],
      "name": "LogFeedbackSubmission",
      "type": "event"
    },
    {
      "constant": false,
      "inputs": [
        {
          "name": "x",
          "type": "uint256"
        }
      ],
      "name": "set",
      "outputs": [],
      "payable": false,
      "stateMutability": "nonpayable",
      "type": "function"
    },
    {
      "constant": true,
      "inputs": [],
      "name": "get",
      "outputs": [
        {
          "name": "",
          "type": "uint256"
        }
      ],
      "payable": false,
      "stateMutability": "view",
      "type": "function"
    },
    {
      "constant": false,
      "inputs": [
        {
          "name": "_clientAddress",
          "type": "address"
        },
        {
          "name": "_projectName",
          "type": "string"
        },
        {
          "name": "_projectDescription",
          "type": "string"
        }
      ],
      "name": "createFeedbackRequest",
      "outputs": [],
      "payable": false,
      "stateMutability": "nonpayable",
      "type": "function"
    },
    {
      "constant": false,
      "inputs": [
        {
          "name": "_feedbackRequestId",
          "type": "uint256"
        },
        {
          "name": "_rating",
          "type": "uint256"
        },
        {
          "name": "_feedback",
          "type": "string"
        }
      ],
      "name": "submitFeedback",
      "outputs": [],
      "payable": false,
      "stateMutability": "nonpayable",
      "type": "function"
    }
  ],
  "bytecode": "0x608060405234801561001057600080fd5b50610d92806100206000396000f30060806040526004361061008e576000357c0100000000000000000000000000000000000000000000000000000000900463ffffffff16806330a83fc21461009357806360fe47b1146101625780636d4ce63c1461018f57806395213384146101ba57806399c17b20146101e5578063a552345a1461036f578063bb8a86741461039a578063eff8022e14610417575b600080fd5b34801561009f57600080fd5b50610160600480360381019080803573ffffffffffffffffffffffffffffffffffffffff169060200190929190803590602001908201803590602001908080601f0160208091040260200160405190810160405280939291908181526020018383808284378201915050505050509192919290803590602001908201803590602001908080601f01602080910402602001604051908101604052809392919081815260200183838082843782019150505050505091929192905050506104d2565b005b34801561016e57600080fd5b5061018d600480360381019080803590602001909291905050506107c7565b005b34801561019b57600080fd5b506101a46107d1565b6040518082815260200191505060405180910390f35b3480156101c657600080fd5b506101cf6107da565b6040518082815260200191505060405180910390f35b3480156101f157600080fd5b50610210600480360381019080803590602001909291905050506107e0565b604051808781526020018673ffffffffffffffffffffffffffffffffffffffff1673ffffffffffffffffffffffffffffffffffffffff1681526020018573ffffffffffffffffffffffffffffffffffffffff1673ffffffffffffffffffffffffffffffffffffffff168152602001806020018060200184151515158152602001838103835286818151815260200191508051906020019080838360005b838110156102c85780820151818401526020810190506102ad565b50505050905090810190601f1680156102f55780820380516001836020036101000a031916815260200191505b50838103825285818151815260200191508051906020019080838360005b8381101561032e578082015181840152602081019050610313565b50505050905090810190601f16801561035b5780820380516001836020036101000a031916815260200191505b509850505050505050505060405180910390f35b34801561037b57600080fd5b50610384610999565b6040518082815260200191505060405180910390f35b3480156103a657600080fd5b506104156004803603810190808035906020019092919080359060200190929190803590602001908201803590602001908080601f016020809104026020016040519081016040528093929190818152602001838380828437820191505050505050919291929050505061099f565b005b34801561042357600080fd5b5061044260048036038101908080359060200190929190505050610bf9565b6040518085815260200184815260200183815260200180602001828103825283818151815260200191508051906020019080838360005b83811015610494578082015181840152602081019050610479565b50505050905090810190601f1680156104c15780820380516001836020036101000a031916815260200191505b509550505050505060405180910390f35b8273ffffffffffffffffffffffffffffffffffffffff163373ffffffffffffffffffffffffffffffffffffffff161415151561050d57600080fd5b60026000815480929190600101919050555060c06040519081016040528060025481526020013373ffffffffffffffffffffffffffffffffffffffff1681526020018473ffffffffffffffffffffffffffffffffffffffff168152602001838152602001828152602001600115158152506001600060025481526020019081526020016000206000820151816000015560208201518160010160006101000a81548173ffffffffffffffffffffffffffffffffffffffff021916908373ffffffffffffffffffffffffffffffffffffffff16021790555060408201518160020160006101000a81548173ffffffffffffffffffffffffffffffffffffffff021916908373ffffffffffffffffffffffffffffffffffffffff1602179055506060820151816003019080519060200190610647929190610cc1565b506080820151816004019080519060200190610664929190610cc1565b5060a08201518160050160006101000a81548160ff0219169083151502179055509050508273ffffffffffffffffffffffffffffffffffffffff163373ffffffffffffffffffffffffffffffffffffffff166002547f6d6cce435ac005bed9721d5c45cce31a4a5612db0325c9078b0d57fe225f03bd8585604051808060200180602001838103835285818151815260200191508051906020019080838360005b83811015610720578082015181840152602081019050610705565b50505050905090810190601f16801561074d5780820380516001836020036101000a031916815260200191505b50838103825284818151815260200191508051906020019080838360005b8381101561078657808201518184015260208101905061076b565b50505050905090810190601f1680156107b35780820380516001836020036101000a031916815260200191505b5094505050505060405180910390a4505050565b8060008190555050565b60008054905090565b60045481565b60016020528060005260406000206000915090508060000154908060010160009054906101000a900473ffffffffffffffffffffffffffffffffffffffff16908060020160009054906101000a900473ffffffffffffffffffffffffffffffffffffffff1690806003018054600181600116156101000203166002900480601f0160208091040260200160405190810160405280929190818152602001828054600181600116156101000203166002900480156108de5780601f106108b3576101008083540402835291602001916108de565b820191906000526020600020905b8154815290600101906020018083116108c157829003601f168201915b505050505090806004018054600181600116156101000203166002900480601f01602080910402602001604051908101604052809291908181526020018280546001816001161561010002031660029004801561097c5780601f106109515761010080835404028352916020019161097c565b820191906000526020600020905b81548152906001019060200180831161095f57829003601f168201915b5050505050908060050160009054906101000a900460ff16905086565b60025481565b6060600060025485111515156109b457600080fd5b600084101580156109c6575060648411155b15156109d157600080fd5b82915060a08251111515156109e557600080fd5b6001600086815260200190815260200160002060020160009054906101000a900473ffffffffffffffffffffffffffffffffffffffff1673ffffffffffffffffffffffffffffffffffffffff163373ffffffffffffffffffffffffffffffffffffffff16141515610a5557600080fd5b600115156001600087815260200190815260200160002060050160009054906101000a900460ff161515141515610a8b57600080fd5b60016000868152602001908152602001600020905060008160050160006101000a81548160ff021916908315150217905550600460008154809291906001019190505550608060405190810160405280600454815260200182600001548152602001858152602001848152506003600060045481526020019081526020016000206000820151816000015560208201518160010155604082015181600201556060820151816003019080519060200190610b46929190610cc1565b50905050846004547fa3f3041407a586e8be8d98394a7a35eb40dbce4bcdbe8748b26320b6c990c9eb86866040518083815260200180602001828103825283818151815260200191508051906020019080838360005b83811015610bb7578082015181840152602081019050610b9c565b50505050905090810190601f168015610be45780820380516001836020036101000a031916815260200191505b50935050505060405180910390a35050505050565b6003602052806000526040600020600091509050806000015490806001015490806002015490806003018054600181600116156101000203166002900480601f016020809104026020016040519081016040528092919081815260200182805460018160011615610100020316600290048015610cb75780601f10610c8c57610100808354040283529160200191610cb7565b820191906000526020600020905b815481529060010190602001808311610c9a57829003601f168201915b5050505050905084565b828054600181600116156101000203166002900490600052602060002090601f016020900481019282601f10610d0257805160ff1916838001178555610d30565b82800160010185558215610d30579182015b82811115610d2f578251825591602001919060010190610d14565b5b509050610d3d9190610d41565b5090565b610d6391905b80821115610d5f576000816000905550600101610d47565b5090565b905600a165627a7a723058207fe24f977c95a835780123a929140491648ed86af62e1cc915014a0e3797065f0029",
  "source": "pragma solidity ^0.4.24;\r\n\r\ncontract BlockchainRatings {\r\n\tuint storedData;\r\n\r\n\t// FeedbackRequest data types ...\r\n\tstruct FeedbackRequest {\r\n\t\tuint id;\r\n\t\taddress vendorAddress;\r\n\t\taddress clientAddress;\r\n\t\tstring projectName;\r\n\t\tstring projectDescription;\r\n\t\tbool pending;\r\n\t}\r\n\r\n\tmapping (uint => FeedbackRequest) public feedbackRequests;\r\n\r\n\tuint public feedbackRequestsCounter;\r\n\t// -----------------------------------------------------------------------\r\n\r\n\t// FeedbackSubmission data types\r\n\tstruct FeedbackSubmission {\r\n\t\tuint id;\r\n\t\tuint requestId;\r\n\t\tuint rating;\r\n\t\tstring feedback;\r\n\t}\r\n\r\n\tmapping (uint => FeedbackSubmission) public feedbackSubmissions;\r\n\r\n\tuint public feedbackSubmissionsCounter;\r\n\t// -----------------------------------------------------------------------\r\n\r\n\t// events\r\n\tevent LogRequestFeedback(\r\n\t\tuint indexed _id,\r\n\t\taddress indexed _vendorAddress,\r\n\t\taddress indexed _clientAddress,\r\n\t\tstring projectName,\r\n\t\tstring projectDescription\r\n\t\t);\r\n\r\n\tevent LogFeedbackSubmission(\r\n\t\tuint indexed _id,\r\n\t\tuint indexed _feedbackRequestId,\r\n\t\tuint rating, // out of 100\r\n\t\tstring feedback\r\n\t\t);\r\n\r\n\tfunction set(uint x) public {\r\n\t\tstoredData = x;\r\n\t}\r\n\r\n\tfunction get() public view returns (uint) {\r\n\t\treturn storedData;\r\n\t\t\r\n\t}\r\n\r\n\t// create a new request for feedback\r\n\tfunction createFeedbackRequest(address _clientAddress, string _projectName, string _projectDescription) public {\r\n\r\n\t\t// vendor can not assign a feedbackRequest to it self\r\n\t\trequire(msg.sender != _clientAddress);\r\n\r\n\t\tfeedbackRequestsCounter++;\r\n\r\n\t\tfeedbackRequests[feedbackRequestsCounter] = FeedbackRequest(\r\n\t\t\tfeedbackRequestsCounter,\r\n\t\t\tmsg.sender,\r\n\t\t\t_clientAddress,\r\n\t\t\t_projectName,\r\n\t\t\t_projectDescription,\r\n\t\t\ttrue\r\n\t\t\t);\r\n\r\n\t\temit LogRequestFeedback(feedbackRequestsCounter, msg.sender, _clientAddress, _projectName, _projectDescription);\r\n\t}\r\n\r\n\t// submit a feedback for a specific request\r\n\tfunction submitFeedback(uint _feedbackRequestId, uint _rating, string _feedback) public {\r\n\r\n\t\t// verify _feedbackRequestId should exist\r\n\t\trequire(_feedbackRequestId <= feedbackRequestsCounter);\r\n\r\n\t\t// verify rating between 0 and 100 inclusive\r\n\t\trequire(_rating >=0 && _rating <=100);\r\n\r\n\t\t// verify feedback is 1 sms length or less i.e 160 characters\r\n\t\tbytes memory strBytes = bytes(_feedback);\r\n\t\trequire(strBytes.length <= 160);\r\n\r\n\r\n\t\t// verify you are authorised to give feedback for this specific requestId\r\n\t\trequire(msg.sender == feedbackRequests[_feedbackRequestId].clientAddress);\r\n\r\n\t\t// verify feedback not already given\r\n\t\trequire (feedbackRequests[_feedbackRequestId].pending == true);\r\n\r\n\t\tFeedbackRequest storage feedbackRequest = feedbackRequests[_feedbackRequestId];\r\n\t\tfeedbackRequest.pending = false;\r\n\r\n\t\t// give feeedback\r\n\t\t// update request feedbackSubmissionsCounter\r\n\t\tfeedbackSubmissionsCounter++;\r\n\r\n\t\tfeedbackSubmissions[feedbackSubmissionsCounter] = FeedbackSubmission(\r\n\t\t\tfeedbackSubmissionsCounter,\r\n\t\t\tfeedbackRequest.id,\r\n\t\t\t_rating,\r\n\t\t\t_feedback\r\n\t\t\t);\r\n\r\n\t\t// emit log event\r\n\t\temit LogFeedbackSubmission(feedbackSubmissionsCounter, _feedbackRequestId, _rating, _feedback);\r\n\t}\r\n}",
  "sourcePath": "D:\\AAapps\\blockchain-ratings\\contracts\\BlockchainRatings.sol",
  "compiler": {
    "name": "solc",
    "version": "0.4.24+commit.e67f0147.Emscripten.clang"
  },
  "schemaVersion": "2.0.1",
  "updatedAt": "2018-12-11T06:17:28.996Z"
}